:020000040000FA
:020000000628D0
:040002000034003492
:020008001F28AF
:06000A000628831603170F
:1000100088018901831603130630860083120313B7
:10002000861006118611831603138B178B150B1080
:100030009614161583120313860186111D28A40039
:10004000030EA3006720861C26282928061D2C28BD
:100050003E28061D37284628552086184D280619A3
:100060004D2886155E205E205E2086114D28552085
:10007000861C4D2886155E2086114D285520061DAC
:100080004D2886155E205E2086114D285520861845
:100090000000061D4D2886114D2886110B10230ED9
:1000A0008300A40E240E0B100900C830A000643099
:1000B000A100A10B5928A00B57280800FA30A00076
:1000C000FA30A100A10B6228A00B60280800FA30CA
:1000D000A000FA30A100A10B6B28A00B6928080032
:02400E00F42F8D
:00000001FF
