:020000040000FA
:020000000528D1
:040002000034003492
:06000A00831603178801B4
:100010008901831603130910891009118501F03035
:100020008600831203138501890186010D30A50026
:10003000A600A7003A201A28CA20CA20CA20CA202F
:10004000CA20CA20A7012608A700A6012508A600E5
:10005000A5012408A500A401080001308600502055
:100060000230860068200430860080200830860038
:1000700098200800013089002D202508B020850037
:10008000C120023089002D202608B0208500C12023
:10009000043089002D202708B0208500C1200800E9
:1000A000061E56280030A4001C200800861E5C286E
:1000B0000130A4001C200800061F62280230A400A2
:1000C0001C200800861F68280330A4001C2008009C
:1000D000061E6E280430A4001C200800861E74280A
:1000E0000530A4001C200800061F7A280630A40052
:1000F0001C200800861F80280730A4001C20080050
:10010000061E86280830A4001C200800861E8C28A5
:100110000930A4001C200800061F92280A30A40001
:100120001C200800861F98280B30A4001C20080003
:10013000061E9E280C30A4001C200800861EA42841
:100140000D30A4001C200800061FAA280E30A400B1
:100150001C200800861F08000F30A4001C20080087
:10016000820770347F3473347D3433345B345F34CE
:100170001F3430346D3479344E343D347E344F3452
:1001800047343230A0006430A100A10BC528A00B79
:10019000C3280800FA30A000FA30A100A10BCE2835
:0601A000A00BCC280800B2
:02400E00F42F8D
:00000001FF
