:020000040000FA
:020000000528D1
:040002000034003492
:06000A00831603178801B4
:10001000890183160313091089100911850106143B
:100020008312031385018901A001A101A2010A30F5
:10003000A000A100A200A501A601A701A801A90195
:100040002B3084007E308000840A30308000840AA7
:100050006D308000840A79308000840A333080005B
:10006000840A5B308000840A5F308000840A72302A
:100070008000840A7F308000840A733080002B3037
:100080008400061845204A20412894200618462856
:100090005A20080003308900270885008B2005308E
:1000A0008900260885008B200630890025088500F8
:1000B0008B200800840AA5010008A500A00B0800F9
:1000C0006128A6010A30A000A80A2B30840000088D
:1000D000A5000408280784000008A6002B3084002F
:1000E000A10B08007328A7010A30A100A000A801F5
:1000F000A90A2B3084000008A500A60004082907DF
:1001000084000008A700A20B08000A30A100A0008C
:10011000A200A9015A280430A3003230A400A40B85
:100120008F28A30B8D280800FA30A300FA30A40012
:0A013000A40B9828A30B96280800E2
:02400E00F42F8D
:00000001FF
