:020000040000FA
:10000000122882073F3406345B344F3466346D3433
:100010007D3407347F346F3477347C3439345E3444
:100020007934713483160317880189018316031309
:100030000F30860085018312031385018601252078
:1000400024080120850049201F28A40110308600C3
:1000500039200319080020308600392003190800D0
:10006000403086003920031908008030860039208E
:100070000800061C0030A4000800861C0130A40003
:100080000800061D0230A4000800861D0330A400ED
:1000900008003230A0003230A100A10B4D28A00B87
:0400A0004B280800E1
:0400A40000340034F0
:02400E00F42F8D
:00000001FF
