:020000040000FA
:1000000001288316031788018901831603138901C8
:100010008601081483120313860188018901A00157
:10002000A101A2010A30A000A100A200A501A60121
:10003000A7010030A800A9002B3084007E3080008A
:10004000840A30308000840A6D308000840A793060
:100050008000840A33308000840A5B308000840A88
:100060005F308000840A72308000840A7F30800014
:10007000840A733080002A30840000089420081815
:1000800043285B204828482808183E284828432849
:1000900089018601270886000915942089018601B7
:1000A0002608860089149420890186012508860087
:1000B000091494204328A501A601A701840A000879
:1000C000A500A00B08006428A601A5010A30A00025
:1000D000A80A2A3084000008A5000408A8078400A4
:1000E0000008A6002A308400A10B08007728A6018A
:1000F000A501A7010A30A100A0000030A800A90AAC
:100100002A3084000008A6000408A907840000081B
:10011000A700A20B08003230A3003230A400A40BC9
:100120008F28A30B8D280800C830A3003230A4000C
:0A013000A40B9828A30B96280800E2
:04013A000034003459
:02400E00F42F8D
:00000001FF
