:020000040000FA
:020000000528D1
:040002000034003492
:06000A00831603178801B4
:1000100089018316031385010814831203137030BA
:1000200084000A30A2007E308000840A30308000D4
:10003000840A6D308000840A79308000840A33306D
:100040008000840A5B308000840A5F308000840A6C
:1000500070308000840A7F308000840A7330800012
:10006000703084000818352032284720081C08000A
:100070003A200800081400088500840A08183E2861
:10008000A20B0800703084000A30A2000800FF3084
:10009000A000FF30A100A10B4B28A00B49280800AD
:02400E00F42F8D
:00000001FF
