:020000040000FA
:020000000628D0
:040002000034003492
:02000800572877
:06000A000628831603170F
:100010008801890183160313061405108510051144
:1000200085110512851283120313850183120313B0
:100030008B108B170B160B118B1683160313811263
:100040000114811401158111011701128312031388
:10005000051085100511851105128512A5011430B2
:10006000A6000930A700303084000C308000840ADC
:100070000C308000840A0C308000840A0A30800032
:10008000840A21308000840A21308000840A2130D3
:100090008000840A21308000840A113080003030D2
:1000A00084000008A5008C20250885005328A400A2
:1000B000030EA3000B1978288B1865288B100B11E1
:1000C000230E8300A40E240E09008B100B11832035
:1000D0008320061C5E286C281430A6000930A70077
:1000E000303084000008A50085008B100B115E28BD
:1000F000A60B5E287B28840A0008A5001430A60001
:10010000A70B5E286C28FA30A000FA30A100A10BE2
:100110008728A00B85280800FA30A000FA30A1003B
:10012000A10B9028A00B8E282830A800A80B962899
:020130000800C5
:02400E00F42F8D
:00000001FF
