:020000040000FA
:020000000628D0
:040002000034003492
:020008002B28A3
:06000A000628831603170F
:1000100088018901831603130130860083120313BC
:100020008610061186118316031301108B170B1609
:100030008B10831203138601263084000230800067
:10004000840A04308000840A08308000263084004E
:100050000330A5002A288B10A400030EA300412022
:10006000061C3C2800088600840AA50B3C2838287A
:10007000263084000330A500230E8300A40E240E36
:1000800009003230A0003230A100A10B4528A00B9E
:0400900043280800F9
:02400E00F42F8D
:00000001FF
