:020000040000FA
:020000000528D1
:040002000034003492
:06000A00B2013F30F000DE
:100010000630F1005B30F2004F30F3006630F40040
:100020006D30F5007D30F6000730F7007F30F800C6
:100030006730F90070308400831603178901880146
:100040008316031385018312031385010A30B2005E
:100050000008850185003420840AB20B28287030FE
:1000600084000A30B2002828FA30B00000000000F6
:10007000FA30B10000000000B10B3A28B00B36286E
:02008000080076
:02400E00F42F8D
:00000001FF
