:020000040000FA
:020000000628D0
:040002000034003492
:02000800452889
:06000A000628831603170F
:1000100088018901831603130614880183120313D0
:100020008801703084000A30A2008316031315146F
:100030008316031381130113831203138B108B1781
:100040000B168312031381308000840ACF308000A6
:10005000840A92308000840A86308000840ACC3082
:100060008000840AA4308000840AA0308000840AC2
:100070008F308000840A80308000840A8C308000B9
:10008000703084000008880044288B10A400030E00
:10009000A3004F20230E8300A40E240E09005E202F
:1000A000061808005420080000088800840AA20BE3
:1000B0000800703084000A30A20008003230A0002E
:0E00C0003230A100A10B6228A00B60280800BE
:02400E00F42F8D
:00000001FF
