:020000040000FA
:020000000628D0
:040002000034003492
:02000800452889
:06000A000628831603170F
:1000100088018901831603130614880183120313D0
:100020008801703084000A30A2008316031315146F
:100030008316031381130113831203138B108B1781
:100040000B16831203137E308000840A3030800048
:10005000840A6D308000840A79308000840A33304D
:100060008000840A5B308000840A5F308000840A4C
:1000700070308000840A7F308000840A73308000F2
:10008000703084000008880044288B10A400030E00
:10009000A3004F20230E8300A40E240E09005E202F
:1000A000061808005420080000088800840AA20BE3
:1000B0000800703084000A30A20008003230A0002E
:0E00C0003230A100A10B6228A00B60280800BE
:02400E00F42F8D
:00000001FF
