:020000040000FA
:020000000528D1
:040002000034003492
:06000A00831603138901B7
:1000100086010F30850083160317880183120313AE
:100020006D207E30A000A100A200A601A60A20300B
:1000300084000008860073206620840A2130840032
:100040000008860073206620840A2230840000089D
:10005000860073206620F030850005080F39031DE7
:1000600032281728A501732005080F39031D3E20EB
:10007000732005080F390319382817281030850018
:100080004B20203085004B20403085004B208030B5
:1000900085004B200800A50A05185828A50A8518D0
:1000A0005828A50A05195828A50A851958280800AE
:1000B0007C205B2008002618A000A618A1002619A5
:1000C000A2000310A60DA6197020080027088900B9
:1000D0000310A70DA7196D2808000130A7006C2890
:1000E0000130A6000800EB30A3001B30A400A40BD5
:1000F0007728A30B7528080025088207303433348D
:10010000723401346D345B347F347E3479345F343F
:0C0110007234363477341F344E343D34E2
:02400E00F42F8D
:00000001FF
