:020000040000FA
:020000000628D0
:040002000034003492
:020008002E28A0
:06000A000628831603170F
:1000100088018901831603130516061488018312CB
:10002000031385018601831203138B170B168B10A4
:100030008316031301138312031388015C20051E2A
:1000400022281E28FF308800652065206520652055
:100050008801652065206520652022288B10A4007A
:10006000030EA3005C20061C362857288801652053
:100070006520652065206520652065206520652058
:100080006520652065206520652065206520652048
:100090006520652065206520652065206520652038
:1000A0006520652065206520652065206520230E7C
:1000B0008300A40E240E09005030A0005030A1008F
:1000C000A10B6028A00B5E2808005030A000503023
:0C00D000A100A10B6928A00B6728080004
:02400E00F42F8D
:00000001FF
