:020000040000FA
:020000000628D0
:040002000034003492
:020008002F289F
:06000A000628831603170F
:1000100089010130880083160313870105148312B8
:1000200003138B170B118B16831603138112011404
:1000300081140115811101170112831203139F13FB
:100040001F179F121F129F111F111F1483160313D6
:100050009F139F121F128312031388012E28A400DE
:10006000030EA30073203A200B11230E8300A40E6D
:10007000240E090020301E02031C5B2840301E02A3
:10008000031C5E2860301E02031C612880301E02A3
:10009000031C6428A0301E02031C6728C0301E0207
:1000A000031C6A28E0301E02031C6D28FF301E026C
:1000B000031C702808000130870008000330870007
:1000C00008000730870008000F30870008001F3045
:1000D000870008003F30870008007F308700080055
:1000E000FF3087000800831203139F149F1876289F
:1000F000831203131E08831203130800FA30A000B2
:0E010000FA30A100A10B8228A00B8028080075
:02400E00F42F8D
:00000001FF
