:020000040000FA
:020000000528D1
:040002000034003492
:06000A00831603178801B4
:10001000831603138501A030840011308000840A08
:1000200022308000840A44308000840A88308000B6
:10003000840AAA308000840ACC308000840AEE3022
:100040008000840AFF308000840A8316031320088E
:100050008312031385005E20831603132108831285
:10006000031385005E2083160313220883120313F3
:1000700085005E2083160313230883120313850073
:100080005E208316031324088312031385005E2069
:100090008316031325088312031385005E2083163D
:1000A000031326088312031385005E2083160313AF
:1000B00027088312031385005E202528FF30A00047
:0E00C000FF30A100A10B6228A00B60280800F1
:02400E00F42F8D
:00000001FF
