:020000040000FA
:020000000628D0
:040002000034003492
:0200080041288D
:06000A000628831603170F
:1000100088018901831603130614850183120313D3
:100020008501703084000A30A20083160313011387
:10003000831203138B108B170B16831203137E305E
:100040008000840A30308000840A6D308000840A89
:1000500079308000840A33308000840A5B3080006D
:10006000840A5F308000840A70308000840A7F3008
:100070008000840A7330800070308400000885009E
:1000800040288B10A400030EA3004B20230E8300F6
:10009000A40E240E09005A2006180800502008005B
:1000A00000088500840AA20B0800703084000A3022
:1000B000A20008003230A0003230A100A10B5E285F
:0600C000A00B5C28080003
:02400E00F42F8D
:00000001FF
