:020000040000FA
:020000000628D0
:040002000034003492
:020008001F28AF
:06000A000628831603170F
:100010008801890183160313F030860005108312CE
:10002000031385018601831203138B178B150B10A5
:1000300083160313F0309600831203131E280B104F
:10004000A400030EA3005520061E2F2805145E20D1
:100050005E205E205E205E205E2005105028861EF9
:100060003A2805145E205E205E205E205E205E2021
:1000700005105028061F452805145E205E205E20CE
:100080005E205E205E2005105028861F5028051433
:100090005E205E205E205E205E205E2005105028DF
:1000A000230E8300A40E240E09005030A00050300F
:1000B000A100A10B5928A00B572808005030A00020
:0E00C0005030A100A10B6228A00B60280800A0
:02400E00F42F8D
:00000001FF
