:020000040000FA
:020000000528D1
:040002000034003492
:06000A00831603178801B4
:10001000890183160313F0308600850183160313CC
:10002000811383120313A20118208120B000142829
:1000300022088120860001308600282002308600B8
:100040003C200430860050200830860064200800E0
:10005000061E2D280030A2000800861E322801301E
:10006000A2000800061F37280230A2000800861FE1
:100070003C280330A2000800061E41280430A200DC
:100080000800861E46280530A2000800061F4B28DF
:100090000630A2000800861F50280730A200080082
:1000A000061E55280830A2000800861E5A2809306E
:1000B000A2000800061F5F280A30A2000800861F61
:1000C00064280B30A2000800061E69280C30A2002C
:1000D0000800861E6E280D30A2000800061F732837
:1000E0000E30A2000800861F08000F30A200080092
:1000F0006430A0003230A100A10B7C28A00B7A282C
:100100000800220882073134323433343434353431
:100110003634373438343934413442344334443457
:0E0120004534463448343D347E344F34473441
:02400E00F42F8D
:00000001FF
