:020000040000FA
:020000000528D1
:040002000034003492
:06000A00831603178801B4
:10001000890183160313F0308600850183160313CC
:10002000811383120313A20122087D208500013071
:1000300086002420023086003820043086004C20C0
:100040000830860060201428061E29280030A200EF
:100050000800861E2E280130A2000800061F332843
:100060000230A2000800861F38280330A2000800D2
:10007000061E3D280430A2000800861E42280530D6
:10008000A2000800061F47280630A2000800861FAD
:100090004C280730A2000800061E51280830A20094
:1000A0000800861E56280930A2000800061F5B289B
:1000B0000A30A2000800861F60280B30A20008004A
:1000C000061E65280C30A2000800861E6A280D3026
:1000D000A2000800061F6F280E30A2000800861F2D
:1000E00008000F30A20008006430A0003230A100E8
:1000F000A10B7828A00B762808002208820770340C
:100100007F3473347D3433345B345F341F343034A4
:0E0110006D3479344E343D347E344F344734F0
:02400E00F42F8D
:00000001FF
