:020000040000FA
:020000000528D1
:040002000034003492
:020008008C2842
:06000A00831603178801B4
:10001000890183160313091089100911850106143B
:10002000831603130113831203138B108B170B1604
:100030008312031385018901A001A101A2010A30E5
:10004000A000A100A200A501A601A701A801A90185
:100050002B3084007E308000840A30308000840A97
:100060006D308000840A79308000840A333080004B
:10007000840A5B308000840A5F308000840A72301A
:100080008000840A7F308000840A733080002B3027
:1000900084004B20492803308900270885009B20D5
:1000A00005308900260885009B2006308900250838
:1000B00085009B200800840AA5010008A500A00B6C
:1000C00008006228A6010A30A000A80A2B3084008C
:1000D0000008A5000408280784000008A6002B30AB
:1000E0008400A10B08007428A7010A30A100A00019
:1000F000A801A90A2B3084000008A500A600040866
:10010000290784000008A700A20B08000A30A100FC
:10011000A000A200A9015B288B10C100030EC00043
:100120009620400E8300C10E410E0900A42006183F
:1001300008005B2008000430A3003230A400A40BA8
:100140009F28A30B9D280800FA30A300FA30A400D2
:0A015000A40BA828A30BA6280800A2
:02400E00F42F8D
:00000001FF
